:100000000C9434000C9451000C9451000C94510049
:100010000C9451000C9451000C9451000C9451001C
:100020000C9451000C9451000C9451000C9451000C
:100030000C9451000C9451000C9451000C945100FC
:100040000C947B030C9451000C9435010C946301C7
:100050000C9451000C9451000C9451000C945100DC
:100060000C9451000C94510011241FBECFEFD8E026
:10007000DEBFCDBF11E0A0E0B1E0E8ECF7E002C0E8
:1000800005900D92A234B107D9F721E0A2E4B1E0C6
:1000900001C01D92AB3AB207E1F70E949E030C9497
:1000A000E2030C940000299A85E08A95F1F700009C
:1000B00029980895CF93C82F662311F0289A01C07C
:1000C0002898549A559A569A579A5F985E985D98D0
:1000D0005C98C7FD5F9AC6FD5E9AC5FD5D9AC4FD3A
:1000E0005C9A0E9453005F985E985D985C98C3FD8F
:1000F0005F9AC2FD5E9AC1FD5D9AC0FD5C9A0E9446
:1001000053005C9A5D9A5E9A5F9A8FE39FE1019734
:10011000F1F700C00000CF91089528985D9A549897
:10012000559856985798299A85E08A95F1F70000D6
:100130004C9B02C080E101C080E04D9980624E99E5
:1001400080644F998068299895E09A95F1F70000AE
:10015000299A95E09A95F1F700004C9981604D99A4
:1001600082604E9984604F9988602998089560E074
:100170000C945A0061E00C945A00611102C080583E
:1001800001C080540C94B7000E948D0087FDFCCF05
:1001900085E18A95F1F700000E948D0090E00895B6
:1001A00081E00C94B70082E00C94B70061E00C94FD
:1001B0005A00CF93DF93EC018991882319F00E94B4
:1001C000D600FACFDF91CF910895CF93DF93FC0152
:1001D0008491EF012196882321F00E94D600FE0130
:1001E000F7CFDF91CF910895CF93C82F209A559ADA
:1001F000219A549A559A569A579A8FEF99EF0197E8
:10020000F1F700C000005D9A5C9A0E9453008FE1F4
:100210009EE40197F1F700C000000E9453008FEFA9
:1002200090E00197F1F700C000000E9453008FEFAB
:1002300090E00197F1F700C000005C980E94530025
:100240008FEF90E00197F1F700C0000088E20E9474
:10025000B70088E00E94B7000E94D00086E00E94AC
:10026000B7008C2FCF910C94B7001F920F920FB64E
:100270000F9211242F938F939F93EF93FF9380916D
:10028000C0009091C6008C71E0914401EF5FEF7166
:1002900020914301E21739F0E0934401F0E0E95B7B
:1002A000FE4F908301C082E090914201892B8093A0
:1002B0004201FF91EF919F918F912F910F900FBE6F
:1002C0000F901F9018951F920F920FB60F92112446
:1002D0008F939F93EF93FF939091460180914501F7
:1002E000981769F0E0914501EF5FEF73E0934501E6
:1002F000F0E0E959FE4F80818093C60005C08091EF
:10030000C1008F7D8093C100FF91EF919F918F91EC
:100310000F900FBE0F901F901895109246011092EB
:100320004501109244011092430197FF03C022E05F
:100330002093C00090789093C5008093C40088E912
:100340008093C10086E08093C2000895909144019B
:10035000809143019817A9F0909143019F5F9F718D
:10036000E92FF0E0E95BFE4F2081809142019093FC
:1003700043011092420190E0982F8827820F911D2F
:10038000089580E091E00895909146019F5F9F73EA
:10039000209145019217E1F3E92FF0E0E959FE4F72
:1003A0008083909346018091C10080628093C10058
:1003B0000895CF93DF93EC018991882319F00E946F
:1003C000C401FACFDF91CF910895CF93DF93FC0161
:1003D0008491EF012196882321F00E94C401FE013F
:1003E000F7CFDF91CF91089587B18F7C87B988B11E
:1003F000806388B9E9EBF0E080818C7F808388E9B5
:100400008093B800089594EA9093BC009091BC004A
:1004100097FFFCCF8093BB0084E88093BC00809161
:10042000BC0087FFFCCF9091B900987F983119F0FC
:1004300081E0903409F480E008958093BB0084E863
:100440008093BC008091BC0087FFFCCF089584ECB2
:100450008093BC008091BC0087FFFCCF8091BB00E3
:10046000089584E88093BC008091BC0087FFFCCF96
:100470008091BB00089584E98093BC00089587E6CD
:1004800090E00E948D010E94F401259A249A239AFB
:10049000229A219A209A579A569A559A549A539A80
:1004A000529A2D982C982B982A98299828985F98DA
:1004B0005E985D985C9A5B9A5A9A85B5856085BD11
:1004C000EEE6F0E080818160808308955C985B9A1D
:1004D0005A9A2D9A2C9A2B9A2A9A299A289A5F9A94
:1004E0005E9A5D9A2FEF83EC99E021508040904016
:1004F000E1F700C000002D982C982B982A98299895
:1005000028985F985E985D985B985C9A5A9A2D9AA5
:100510002C9A2B9A2A9A299A289A5F9A5E9A5D9A1F
:100520002FEF83EC99E0215080409040E1F700C02C
:1005300000002D982C982B982A98299828985F9835
:100540005E985D985A985C9A5B9A2D9A2C9A2B9A91
:100550002A9A299A289A5F9A5E9A5D9A2FEF83ECDD
:1005600099E0215080409040E1F700C000002D98B4
:100570002C982B982A98299828985F985E985D98CF
:1005800008955C985B985A982B9A289A5D9A2FEF59
:1005900087E893E1215080409040E1F700C00000DF
:1005A0002B9828985D982C9A299A5E9A2FEF87E8C5
:1005B00093E1215080409040E1F700C000002C986A
:1005C00029985E982D9A2A9A5F9A2FEF87E893E1EF
:1005D000215080409040E1F700C000002D982A98FB
:1005E0005F980895CF93DF93CDB7DEB764970FB6CA
:1005F000F894DEBF0FBECDBF809100019091010144
:100600008430910579F130F4019709F065C084E0F8
:1006100090E064C08530910509F440C0069709F068
:100620005BC082E291E00E94D9018091A9014AE079
:10063000BE01655F7F4F90E00E94AD038091AA01EB
:100640004AE0BE016F5F7F4F90E00E94AD03CE0194
:100650000B960E94D90180E491E00E94D901CE015D
:10066000019638C088EB0E940302811114C00E94D9
:100670001D020E943B0289EB0E9403020E94270296
:100680008093A7010E9431028093A8010E943B023F
:1006900085E090E023C082E091E01CC088EB0E94DE
:1006A0000302811115C082E00E941D020E943B02DC
:1006B00089EB0E9403020E9427028093A9010E94F5
:1006C00031028093AA010E943B0286E090E006C0BE
:1006D00082E191E00E94D90181E090E090930101D4
:1006E0008093000164960FB6F894DEBF0FBECDBFB5
:1006F000DF91CF9108951F920F920FB60F921124A0
:100700000F900FBE0F901F9018950F931F9387FBAC
:1007100000F985FB10F9012784FB10F9012783FB01
:1007200010F901270095880F00FB80F91F910F91A8
:1007300008950F931F931F910F9108950E943F02F8
:1007400078940E94F2028091A9018D3118F40E94E0
:100750006602F7CF0E94C102F4CFBB274A3031F4C2
:10076000992322F4BDE2909581959F4F0C94B90393
:10077000BB27FB015527AA27880F991FAA1FA4177B
:1007800010F0A41B83955051B9F7A05DAA3308F06F
:10079000A95DA193009779F7B111B1931192CB01A3
:1007A0000C94D203DC01FC01672F71917723E1F7F0
:1007B000329704C07C916D9370836291AE17BF072E
:0807C000C8F30895F894FFCF7F
:1007C80001004E6F7420636F6E6E656374656420FC
:1007D80048004E6F7420636F6E6E656374656420A5
:1007E80054000D0A2D2D2D54656D70657261747558
:1007F80072652076616C7565732D2D2D3A0D0A0092
:020808002E00C0
:00000001FF
